:020000040000FA
:20000000005000207D0F0000750F00005D0F0000790F0000790F0000790F0000000000005C
:20002000000000000000000000000000790F0000790F000000000000790F0000790F0000A0
:200040009D330000790F00002DF00000790F0000692A0000C92E0000790F0000790F000009
:20006000790F000055F00000790F0000790F0000790F0000790F0000790F0000790F000083
:20008000790F0000790F0000790F0000790F0000790F0000790F0000790F0000790F000020
:2000A000790F0000790F0000790F0000790F0000790F0000790F0000790F0000790F000000
:2000C000790F0000790F0000294B1B689B0702D44FF000407047F0B5002083B0452102F01B
:2000E00027FB0DF10601012002220EF03FFB38B901A802210EF064FB4FF0004003B0F0BD63
:200100000DF10601002002220EF030FB0028EFD0BDF806305BBA9CB2200BADF804300FF035
:200120008FFF0FF031FB0646C4F30B000F460FF097FF0DA3D3E9002304460D4630463946ED
:200140000FF0F4FF02460B46204629460FF0EEFF10F086FA074910F0E1FB10F02FFD03B0C8
:20016000F0BD00BFAFF300807B14AE47E17A843FBC0700200000C84208B51F4B1B68032B8A
:2001800033D1431E012B30D81C4A1D4B012812881B8812D018460FF053FF0022194B0FF07C
:2001A000C5FF0022184B0FF0C1FF10F059FA174910F0B4FB10F002FD08BD10B20FF050FF01
:2001C0000022104B0FF0B2FF09A3D3E900230FF0ADFF00220E4B0FF0F5FD10F041FA0B49C1
:2001E00010F09CFB10F0EAFC08BD4FF0004008BD0000000000A06440E0070020CE2B002015
:20020000D02B00200000F03E000059400000C84200004440000000002DE9F041664B1B68F3
:200220004BB1664B002210F0380604461A609A8006D142073ED14FF000463046BDE8F08193
:2002400002F086FB5E4D286007E002F081FB2A686FF009039B1AC34203D501F0C3FD00283B
:20026000F3D0584B1B78D907E5D5544D0120682102F05EFA29463B2006220EF077FA0646A9
:200280000020014602F054FA002E7ED02F786E78A878E9782A796B79202C6F702E70E87085
:2002A000A9706A712B715AD0102C65D0082C66D00026C2E702F04CFB414D286007E002F0B2
:2002C00047FB2A686FF009039B1AC34203D501F089FD0028F3D03B4B1B78DB07ABD5374DEC
:2002E0000120682102F024FA2946432006220EF03DFA074600284DD095F8008095F801C028
:2003000095F802E0EF782A796B790020014685F8018085F800C085F803E0AF706A712B71E8
:2003200002F006FA042C06D0022C2BD0012C84D1B5F9040001E0B5F900000FF091FE1CA38C
:20034000D3E9002310F01CF810F08AF91E4910F0E5FA10F033FC06463046BDE8F081B5F92C
:20036000000001F069FC184910F0D8FA10F026FC06463046BDE8F081B5F90200F1E7B5F9C4
:200380000400EEE7B5F90200D7E7284606210EF017FA50E7284606210EF012FA384639469F
:2003A00002F0C6F94FF0004647E700BFAFF30080000000000060604010080020E8070020B1
:2003C000242C0020E42B00200000C842000000002DE9F04F144623F00047024657EA0400DE
:2003E0000E468FB01D469C46214634D06E4B26F0004A9A459346B14626DC24D09F4223DC1C
:20040000694B9F4200F08F80B9F1000FC0F28F804FF0000879BB644B9F4200F0A580634B00
:200420009F4267D0BCF1804F00F0E283604B9C4521D1B9F1000F1EDB104631460FB0BDE872
:20044000F04F0FF021BB62B10AF1404000F5801050EA0B0007D10346544918460FB0BDE8AA
:20046000F08F5745CCDD53480FB0BDE8F04F0FF009BC4FF0000810463146CDF808C0009283
:200480000FF0C8FB009ADDF808C0BBF1000F20D04FEAD97909F1FF3958EA09037AD0464BD2
:2004A0009F4240F38F8003F104739F4240F31084424B9A4540F39283BCF1000F40F392834E
:2004C00037A1D1E900010B4602460FF02FFE0346C3E7BAF1000F04D0344B29F0404E9E453A
:2004E000D6D1BCF1000FC0F2B683B9F1000F08DB0346B2E7BCF1000FC0F25284134631461C
:20050000ABE70AF1404A0AF5801A58EA0A0340F05E8402460B460FF055FC0B4602460FF049
:200520002FFF034699E700293FF46EAF8CE7244B9F422CDCA3F154739F427FF769AF40F284
:2005400013403B15834240F34B84C3F58663033321FA03F000FA03F38B427FF459AF00F024
:200560000100C0F1020855E70AF1404303F5801353EA0B0300F03983104B9A4540F364832F
:20058000BCF1000FC0F22E832346294665E74FF002083FE7104631463346BCE7AFF300809E
:2005A0009C7500883CE4377E0000F07F0000F03F0000E03FF41901000000E041FFFFEF3FB5
:2005C000FFFF3F43BAF5801F4FF0000205DACA4B0FF0ACFD8A466FF034024FEA2A53C74E40
:2005E000CAF3130AA3F2FF334AF07F571344B2450C9347F4401740F3D083C14B9A4540F327
:2006000007840026B4460C9BA7F5801701330C933946BC4B4FEACC0C6344D3E900AB524645
:200620005B46CDF834C0CDE906010FF0CBFB52465B46CDE90801DDE906010FF0C5FB024612
:200640000B460020B0490FF09BFE02460B46DDE90801CDE90A230FF069FD02460B46CDE999
:200660000223CDE904237B1043F0005303F5002399190020002306460F460293DDE9022336
:200680001046194632463B46CDE900010FF04EFD02460B46DDE908010FF094FB5246CDE967
:2006A00008015B46304639460FF08CFB02460B46DDE906010FF086FB02460B46DDE90001CF
:2006C0000FF034FD02460B46DDE908010FF07AFBDDE90A230FF02AFDDDE90423CDE906014B
:2006E000104619460FF022FD02460B4606460F460FF01CFD6EA3D3E9002382468B463046D6
:2007000039460FF013FD6CA3D3E900230FF05CFB32463B460FF00AFD69A3D3E900230FF01E
:2007200053FB32463B460FF001FD67A3D3E900230FF04AFB32463B460FF0F8FC64A3D3E999
:2007400000230FF041FB32463B460FF0EFFC62A3D3E900230FF038FB02460B465046594674
:200760000FF0E4FCDDE9042306460F46DDE900010FF02AFBDDE906230FF0D8FC32463B4666
:200780000FF022FBDDE9006782468B4632463B46304639460FF0CAFC00225C4BCDE908013C
:2007A0000FF012FB52465B460FF00EFB02980F460646DDE9000132463B460FF0B7FC3246C7
:2007C0003B46CDE90001DDE906010FF0AFFC0022CDE906014D4B304639460FF0F3FADDE94C
:2007E00008230FF0EFFA02460B46504659460FF0E9FADDE904230FF099FC02460B46DDE956
:2008000006010FF0E1FA82468B46DDE9000152465B460FF0D9FA32A3D3E9002302980F46E9
:2008200006460FF083FC30A3D3E90023CDE90401304639460FF07AFCDDE90023CDE9060171
:20084000304639460FF0BEFA02460B46504659460FF0B8FA26A3D3E900230FF067FC02461B
:200860000B46DDE906010FF0AFFADDF834C0284BCDF818C06344D3E900230FF0A5FACDE9FF
:2008800000010C980FF0ECFB06460F46DDE90401204BDDF818C09C44DDE90023DCE900AB10
:2008A0000FF092FA52465B4636E000BFAFF30080EF4E454A287ECA3F65DBC9934A86CD3F8A
:2008C00001411DA96074D13F4D268F515555D53FFFAB6FDBB66DDB3F033333333333E33FC6
:2008E000000000E009C7EE3FF5015B14E02F3EBEFD033ADC09C7EE3F000040438E980300EC
:2009000079B60B00601801000000F03F000008405018010040180100CDE906AB0FF054FA37
:2009200032463B460FF050FA029832463B4682468B460FF047FADDE906230FF043FADDE918
:2009400004230FF03FFA02460B46DDE900010FF039FACDE9020108F1FF3858EA09030CBFA4
:20096000D54BD64B0022CDE904230023CDE900450093DDE90067204632463B4629460FF08C
:2009800021FA52465B460FF0D1FBDDE9022380468946204629460FF0C9FB02460B46404601
:2009A00049460FF011FA04460D465246304639465B46CDE902450FF0B9FB06460F4620461C
:2009C0003B46294632460FF0FFF9BD4B824699428946884640F3138101F13F4303F5E0035A
:2009E000034340F0E581A0A3D3E90023DDE902010FF0EAF9324604460D463B465046494693
:200A00000FF0E0F902460B46204629460FF01EFE002840F0CD814C462015A0F2FE304FF405
:200A2000801101414144C1F30A50A64CA0F2FF35C1F3130BC0F5826003302C414BF4801BB5
:200A400021EA040300224BFA00FB394630460FF0B9F906460F46DDE902018BEAE87B0BEB44
:200A6000D87B32463B464FEA0B5A0FF0ADF980A3D3E90023002420460D460FF057FB32463F
:200A8000804689463B46204629460FF09BF902460B46DDE902010FF095F977A3D3E90023F0
:200AA0000FF044FB76A3D3E9002306460F46204629460FF03BFB02460B46304639460FF0C8
:200AC00083F906460F4632463B46404649460FF07BF942464B4604460D460FF073F902460F
:200AE0000B46304639460FF06DF92246804689462B46204629460FF019FB63A3D3E9002310
:200B000006460F460FF012FB61A3D3E900230FF059F932463B460FF009FB5FA3D3E9002317
:200B20000FF052F932463B460FF000FB5CA3D3E900230FF047F932463B460FF0F7FA5AA375
:200B4000D3E900230FF040F932463B460FF0EEFA02460B46204629460FF034F906460F4663
:200B600032463B46204629460FF0E0FA0022CDE900014FF08043304639460FF023F902469B
:200B80000B46DDE900010FF0FBFB424606460F464B46204629460FF0C9FA42464B460FF0DF
:200BA00013F902460B46304639460FF00BF922462B460FF007F902460B4600203F490FF080
:200BC00001F98A44BAF5801F0246C0F227815346DDE904010FF0AAFA03463EE4BCF1000F2F
:200BE000FFF66EAC0023194637E40B46334934E43346104631460FF099FA03462DE4324BB5
:200C000021F000449C4240F3FA80304B0B4403430CD132463B460FF0D5F802460B46DDE9E3
:200C200002010FF0FFFC00283FF4F6AE20A3D3E90023DDE904010FF079FA1DA3D3E900233A
:200C40000FF074FA034608E4BCF1000FCADA234605F1004101E402460B46002017490FF0F5
:200C60008FFB42E4AFF30080FE822B654715973C00000000432EE63FEF39FAFE422EE63F18
:200C8000396CA80C615C20BED0A4BE726937663EF16BD2C541BDBB3E2CDE25AF6A56113FA0
:200CA00093BDBE166CC1663F3E5555555555C53F59F3F8C21F6EA5010000F0BF0000F03F3C
:200CC000FFFF8F40FFFF0F00FFCB904000346F3F634B9A4582DD634B9A453FF7EDAB002255
:200CE000604B0FF06FF854A3D3E9002306460F460FF01CFA52A3D3E90023CDE90001304656
:200D000039460FF013FA3246CDE902013B46304639460FF00BFA002282468B4630463946ED
:200D2000514B0FF003FA02460B4647A1D1E900010FF048F832463B460FF0F8F902460B461E
:200D400000204A490FF03EF802460B46504659460FF0ECF93EA3D3E900230FF0E7F9024612
:200D60000B46DDE902010FF02DF806460F46DDE9000132463B460FF027F8DDE900230020AD
:200D800082468B460FF01EF802460B46304639460FF018F8CDE90201DDE50026B44637E452
:200DA000334600202F490FF0EBFA0346FFF755BB29A3D3E90023DDE904010FF0B7F926A301
:200DC000D3E900230FF0B2F90346FFF746BBB8F1010F03467FF441AB01F10041FFF73DBBC8
:200DE00000297FF446ABC3F58263033347FA03F000FA03F3BB4217D08846FFF710BB1B4B96
:200E00009C423FF709AEDDE90023924693462EE64FF480264FF0010CFFF7FABB5A4600F0E9
:200E200027F802460B46D3E600F00100C0F10208FFF7F5BAAFF30080000000604715F73FDC
:200E400044DF5DF80BAE543E555555555555D53FFE822B654715F73F9C7500883CE4377EAD
:200E6000FEFFEF3F0000F03F0000D03F0000E03FF8B5C1F30A5604460D460B46174616BB0D
:200E800021F00043034332D00022314B0FF04EF9304A044697420D460B4637DB40F2FE72DD
:200EA000C1F30A56363E3E44964215DD24A1D1E9000122462B460EF079FF21A3D3E90023EC
:200EC0000FF034F9F8BD40F2FF72964224D040F2FE723E449642E9DC002E09DD23F0FF4398
:200EE00023F4E00343EA065520462946F8BDF8BD16F1350F15DA4CF250339F42D6DC12A1F0
:200F0000D1E9000122462B460EF050FF0EA3D3E900230FF00BF9F8BD02460B460EF054FFBE
:200F2000F8BD23F0FF4323F4E003363643EA0655204629460022084B0FF0F8F8F8BD00BF0C
:200F40009C7500883CE4377E59F3F8C21F6EA50100005043B03CFFFF0000903C044B1A68D0
:200F6000B2F5806F03D01B689B0500D4FEE7704728ED00E0FEE700BFFEE700BF08B50BF080
:200F800079FF104A104B9A420DD2D0430F4918440B4620F003000430084453F8041B83428F
:200FA00042F8041BF9D10A480A494FF000028842B8BF40F8042BFADB00F03AF9FFF7CEFFC5
:200FC00008BD00BF0000002095060020A01E0100980600208F36002070B5048884B0054620
:200FE0007CB1832C08D13A4B1B788B424BD0832301202B8004B070BD00230380032004B06C
:2010000070BD344802F03AFF334808F0DDF94AF6AA2368463149ADF80030ADF80240ADF81D
:201020000440ADF80640ADF80840ADF80A40ADF80C40ADF80E4006F097FE214601226846FE
:2010400006F058FD264802F019FF264C04F1600614F8023C227C0BB1012A0DD92034B44201
:20106000F6D100200246014608F094FF4BF60B121D4B02821860BAE7204609F0B3F91B489E
:2010800002F0FCFEEAE71A4B1B789B070BD4194B01219B688120984700210B461648174AE0
:2010A00003F05AFCA3E7164C164801F06FFD204609F098F90A2001F061FD94E80F000A4CF6
:2010C000246884E80F00104801F060FDDFE700BF8D3600208C180100A4180100342C002019
:2010E000B8180100AE33002018070020D018010024300020601A0100F40600200D110000CF
:20110000442C0020D4180100FC180100F0B5254E83B07368042098472349244C0B68244F52
:2011200084FB0325DA17C2EBE50202EB8202A3EB8202204D0133B3F5167F38600B6045F8E2
:20114000220025DC84FB0324DA17C2EBE40404EB8404B3EB840408D000210B461648174A9A
:2011600003B0BDE8F04003F0F7BB154801F00EFD4BF60B02134B0092186829460346502201
:2011800009F0B2F92C606C60AC60EC602C61E3E7B3680021812098470B4803B0BDE8F0400D
:2011A00001F0F4BC601A01001407002067666666A0060020A4060020F40600200D11000077
:2011C0001C190100180700202C190100F0B5002706463C463D4683B0304600F0C9F9019546
:2011E000019B9C4206DD00BF019B01330193019B9C42F8DC304600F0C5F90195019BC4F512
:20120000C874A34206DA00BF019B01330193019BA342F8DB0137B7F5487F06D0B7F5C87FE2
:20122000CCBFC7F548743C46D6E703B0F0BD00BF2DE9F0415F4C84B023685F4801215B6810
:201240009847236801210A461B685B4898470BF0D5FA02F0E7F802F051F800F0B9FF02F03D
:201260008BF800F07BF955495548564A012303600B6018461368FFF7A9FF0BF0C3FA01F09A
:2012800069FB01F0D3FA03F051FE01F043FC03F05DFD41F2342003F077FF01F0E1FD03F0BB
:2012A000E9FE494801F072FC4AF630520021474802F0E4FD464801F069FC0021454803F08D
:2012C00009FE03F00FFB03F089FB0220FFF77EFF414802F0D3FD414B414C186801F056FCD7
:2012E000404802F0CBFD404B186801F04FFC3F4802F0C4FD21683E4802F0C0FDE469A04739
:2013000020B1A04701463B4802F0B8FD0A2001F035FC00250CF09EF902A80821364C374EC6
:20132000019501F06BFC9DF80F209DF80E8002AB03CB42EA0828F76A2060616002204AF6FD
:20134000CD31B84741460320B84719210120B847082202A9736B0B209847B36A01A90120E8
:2013600098470199264802F089FD264B626821685A6019600CF0DAFA2946234803F0AAFDD3
:201380000220FFF723FF2946204803F0A3FD204803F052FA01F0CCFB0120FFF717FF03F02A
:2013A000EFFC044601F0DCFB14F0FF0FF7D101F091FEF4E7D801001000400340080009403E
:2013C0000C4009402C200940541901007819010090190100F0040020A4190100001C01004A
:2013E000101D0100AC190100DC1C0100B4190100BC190100C019010054360020201B01009C
:20140000E4190100342C0020AC05002038040020801801002DE9F04104880646772C30D0C6
:201420007E2C27D024B1002303800320BDE8F08103F07EFC2F4F304B304D3A6818702C60BE
:20144000002A45D02346A0462D4C04F8038093688020002198472B68013357F823202B6087
:20146000002AF2D1DBB2274A1370772333800120BDE8F081204B1B788B4219D00120BDE800
:20148000F081DFF880801D4D98F800201E4F002393423B602B6007DA194CE156002919DBC5
:2014A000013393422B60F7DB3B68002BEFD1DCE7124D134CDFF84C80134F2B683A68E05C41
:2014C000511C00F07F0098F80020E0543960E7E71346C8E70849074A097852F8232000200D
:2014E00003F0C4FC0028E8D17E2333800120BDE8F08100BF480400208A3600201C0700207F
:20150000182C0020E02B00202007002010B40F4B1C7864B10E4A1368984214D0002303E097
:2015200052F8041F88420CD00133A342F8D1094A0948135D63F07F0313555DF8044B03F0CE
:20154000E9BC1C46F3E70024F1E700BFE02B002048040020182C00203804002008B500F0EB
:201560001BF8024B00221A7008BD00BFE12B0020034A137803431846137000F029B800BF20
:20158000E12B0020034A137823EA00031846137000F01EB8E12B00200A4B1A6802B1704723
:2015A00010B50122084C1A6023680A20DB6B984723680F20DB6B9847044B4FF404421A606A
:2015C00010BD00BF24070020B4010010A0200240094B0A494FF4044208701A60C20744BF7F
:2015E0004FF4806243F8102C830703D5044B4FF400421A60704700BFA0200240E22B0020FA
:2016000090200240813801289ABF024B18680020704700BF68070020024B032202481A6075
:20162000FFF774BF68070020081A010010B5044682B07721002001F07BF84CB98DF80740A1
:201640000DF107010122F4200DF09EF802B010BD25238DF80730F3E730B5802885B016D0B5
:20166000812810D11D4C206878B151B30120FFF7DDFF1B4803211B4A002303F06DF9022045
:20168000206005B030BD154B186805B030BD134C012500207721256001F04AF8124918221C
:2016A00088200DF063F804A9B62301F8013D2A46E0200DF069F80020FFF7B8FF206805B095
:2016C00030BD0748019103F06FF901990846FFF7ADFF01231846236005B030BD6807002021
:2016E000480700201916000030070020F8B5534B1B68032B40F09A80431E012B00F296801A
:201700004F4C00237721054623601846A38001F00FF82146F72006220DF028F800287ED0F3
:20172000E178484A23796079090341EA0311168841EA1013C6EB131101FB01F1B2F9047030
:2017400076000913B2F90200C6EBD30307FB01F100FB03F0891301EBE0204710A7F57A4E9E
:201760004FEAAE0606FB06F6B2F90810B2F90A70731301FB0EF103FB07F3B2F90E7049109C
:2017800007FB0EF701EBE303B2F806C09B14B2F910E003F50043F61279000CFB03F30EFBF4
:2017A000061726786178B2F90CE094F802C036034FEA0E4446EA0111DB13906104EBA7072E
:2017C00041EA1C1127D040F635444942A1EB273104FB01F101F1434101F5A0010029B3BF03
:2017E000B1FBF3F34900B1FBF3F35B00D90801FB01F1B2F91440B2F916609F08490B04FB38
:2018000007F401FB06F1B2F91260621302EB2131314403EB2113012D0BD01846F8BD2046F0
:2018200006210CF0CDFF4FF00040F8BD4FF00040F8BD00EB800080300012F8BD68070020E0
:201840002807002030070020813801289ABF024B18680020704700BF90070020024B03221B
:2018600002481A60FFF752BE90070020181A010010B504464421002000F05AFF002C064B5A
:2018800014BF1024002402201C801946BDE8104002460CF079BF00BFCC2B002010B580284C
:2018A00082B017D0812811D11D4C206880B1002929D00120FFF7DCFF1A4824211A4A002320
:2018C00003F04AF80220206002B010BD144B186802B010BD154C012023689B6B98472368D7
:2018E00001209B694FF48041984723684FF08041DB69012098470020FFF7BAFF084B0120CE
:20190000186002B010BD0748019103F04DF801990846FFF7ADFF01231846236002B010BDA9
:2019200090070020700700205D180000B401001038B5344B1B68032B07D1820705D00328A1
:201940000FD0012805D0022807D04FF00043184638BD2D4B1B68184638BD2C4B1B6818462E
:2019600038BD2B4D44210446002000F0E1FE2946042002220CF0FAFE70BB264D2548042181
:201980000CF01EFF00202C786B78A978EA7843EA042442EA01220028D7D090080EF06AFF92
:2019A0004FF074510EF0BAFF1B490EF0B7FF0FF005F9154B154D1860A0080EF05BFF4FF0DE
:2019C00074510EF0ABFF14490EF0A8FF0FF0F6F801232860184638BD2B885BBA2B805B04DA
:2019E0000C4DCBD50120294602220CF0BFFE0028C4D02046A91C02220CF0B8FE0028C2D109
:201A0000BCE700BF900700206C07002098070020CC2B00209407002000007A44014B1868FF
:201A2000704700BFBC07002070B506460E4C82B000204521256800F07BFE76B905F00205A9
:201A40004FF486532560ADF806300DF10601022201200CF099FE02B070BD41F2C202012333
:201A6000ADF806202360F0E7BC07002000B5002083B0452100F05CFE01200DF1060102225C
:201A80000CF074FEBDF90630002B08DB08481021084A002302F060FF03B05DF804FB064842
:201AA000FFF734FD054B02221A6003B05DF804FB9C0700206D1A0000381A0100BC0700208A
:201AC000802810B50DD0812809D10C4671B90D4802F06AFF2046FFF7A7FF204610BD0020B8
:201AE00010BD0020FFF7A0FF002010BD0120FFF79BFF04481021044A002302F02DFF012099
:201B000010BD00BF9C0700206D1A0000813801289ABF024B18680020704700BFE00700204A
:201B200038B5114C114A237803211160ABB1104D0020432100F0FCFD0421284600F002FD28
:201B400020700020014600F0F3FD2A886B880948094952BA5BBA02800B8001232370074832
:201B6000BDE83840FFF7D2BCE32B0020E0070020E4070020CE2B0020D02B0020481A0100ED
:201B800030B5802883B023D081281DD1234C2068E0B100293AD0224D2B785BB1432100209E
:201BA00000F0C6FD002000F0ABFC28700020014600F0BEFD1B4803211B4A002302F0CCFE46
:201BC0000220206003B030BD144B186803B030BD164B0024164A174D20461C604321148021
:201BE0002C8000F0A5FD02A91023022021F8023D02460CF0C9FD0A4B21461870204600F0AB
:201C000097FD064B0120186003B030BD054802F0CBFE01231846236003B030BDE0070020F2
:201C2000E32B0020C0070020211B0000E4070020D02B0020CE2B002008B5174B1B78032B34
:201C400028D8DFE803F01E150C020EF009FA00224FF07D530EF06AFA0EF002FD08BD0EF035
:201C6000FFF900220D4B0EF061FA0EF0F9FC08BD0EF0F6F900220A4B0EF058FA0EF0F0FC43
:201C800008BD0EF0EDF90022064B0EF04FFA0EF0E7FC08BD002008BDE72B00200000303FB5
:201CA0000000203F0000103F813801289ABF024B18680020704700BF10080020024B02222F
:201CC00002481A60FFF722BC10080020601A010010B50C4C0120682100F02AFD3F23214612
:201CE00001226C2023700CF04FFD21464F236B20012223700CF048FDBDE8104000200146A3
:201D000000F016BDE82B0020802838B50BD0812806D111F03F012DD1294B1B68DB043BD4B9
:201D2000284B186838BD284C072023689B6B9847236807209B694FF40051984723684FF0BD
:201D400080410720DB69984723680C20DB6B984723680C209B6A4FF480614FF440729847E8
:201D60001A4A4FF480501A4B1060164900221A60086838BD1648174B124D4FF48052016022
:201D800001241A6014480821144A00232C6002F0E3FD2C60204638BD0D4B0F48196002F03F
:201DA00003FEFFF795FF0E4A136813F00103FBD1044A06494FF4805013600860106838BDFA
:201DC0008020024010080020B4010010A02002401408002090200240F00700200D1E0000B2
:201DE0000428004010B5084C0120682100F0A0FC214601223A200CF0B9FC0020014600F03C
:201E000097FC207810BD00BFE42B00202DE9F041354C236813F0380F15D1344D03F03F04A2
:201E20002E7856B94CBBFFF753FFBDE8F04130480521304A002302F08FBDE3B22B70002CF3
:201E4000F1D02D4F3DE02D4E3278002AE5D02C4F0025012068213D7000F06AFC3946012235
:201E60001C200CF091FC07462946284600F060FC2368002FD1D03570CFE71F4F0120682159
:201E800000F056FC0923394601226B203B700CF07BFC3F23394601226C203B700CF074FCE2
:201EA000174901221C202E700CF06EFC394601223A200CF05BFC3046314600F039FCE3B269
:201EC0002B70DB43012068213B7000F031FC012209496C200CF058FC0020014600F028FC0B
:201EE00008480AF093FCA0E714080020E62B0020F0070020BD1C0000E82B0020E72B0020C0
:201F0000E52B00208038010008B5034B1B685B689847C0F3804008BDB401001028B10128A9
:201F200006BF054BD86800207047044B186800F0010080F00100704718080020C02002402B
:201F400008B100207047034B186880F01000C0F300107047C0200240813801284FF00000E6
:201F600000D97047FFF7D0BF8138012801D9002070470420FFF7C8BF802870B514460AD017
:201F8000812807D1E9B9BDE87040194B10461B685B6B184770BD164B164A0125A5401B68EB
:201FA000156020461B680021134A9847134AE0B21368134923EA05051560BDE8704001F0CE
:201FC000C5B90B4E0B4A01253368A540156020461B680021084A9847084A316813682046B3
:201FE00023EA050515600B6BBDE87040184700BFB4010010E020024000400720D0200240CC
:202000001D20000008B50022FFF7B6FF012008BD08B50422FFF7B0FF012008BD38B510B1F7
:20202000042814D038BD134C204602F0BFFF0028F8D02046042102F0A5FF0F4B1B6813F035
:2020400001050CD100F03AFCE560A06038BD4FF480414FF08052BDE8384000F05FBF00F00D
:202060002DFCA368C31AE3600448BDE83840FFF74DBA00BF18080020C0200240801A0100EA
:20208000024B186800F00800704700BFC02002408138012801D90020704708B5034B032022
:2020A0001B685B689847C0F3804008BDB4010010802810B509D0812805D1134B03201B6835
:2020C000E9B95B6B9847012010BD0F4C032023685B6B98470D4B0E4A1B6808211160DB690C
:2020E0004FF4A060984723680A4A1B680320002198470320084901F029F9012010BD1B6B3E
:202100009847012010BD00BFB4010010B8010010E0200240002003201D21000008B50748D6
:2021200002F044FF00B908BD0548FFF7EFF9BDE808400248402102F025BF00BF2808002044
:20214000A81A010010B5064C042023685B699847236804205B6B98470128F9D110BD00BF80
:20216000B8010010FFF7EEBF032801D000F016B908B50CF0FDFB104B00219B688120984788
:202180000E4B00219B68812098470D4B00219B68812098470B4B00219B68812098470A4BF7
:2021A00081209B6800219847084B4FF480521A60BDE8084000F0F2B8081A0100381A01009C
:2021C000181A0100481A0100601A0100A020024070B50AF013FB0646FFF7B4FF3C4B4FF400
:2021E000A0601B68DB6998473A4B01213A4A196013689B07FCD5394C00F0A2F80CF0B2FBEF
:202200000CF0A6FB364801F06DF8236819209B6B984723684FF4005119209B6998472368DE
:2022200018209B6B984723684FF4005118209B699847236817209B6B984723684FF4005181
:2022400017209B69984723681B209B6B984723684FF400511B209B69984723681E209B6BAD
:20226000984723684FF480411E209B69984723680D20DB6B98471B4A4FF4005523681560F5
:2022800000214FF480729B6A0D209847236802209B6B9847236829469B69022098472368BB
:2022A0000B209B6B9847236829469B690B20984723681D209B6B9847236829469B691D201E
:2022C000984706B170BDBDE870400AF09BBA00BFB80100102820086028200840B40100100A
:2022E0006C040020A020024010B5094B09481B685B68984710F00C0F044605D0064B04220C
:202300001A6002200AF082FAB4FA84F0400910BDAC010010002000400428004008B5064BDC
:2023200002201B685B6B9847012803BF034B186800F00100002008BDB80100106020084033
:2023400070B5104D02202B685B6998472B6802205B6B9847012804460A4BF7D11B684FF4F3
:202360004070DB699847084B084A1C6013689B07FCD5074B07481B6807491B680122BDE8BC
:2023800070401847B80100102820086028200840AC01001000200040006CDC02214B10B58D
:2023A000FF221A70FFF7BAFF20B11F491F4A00230B6013601E4B4FF440701B681B6A9847DD
:2023C0001C4B01211C4A196013689B07FCD51B4C082023689B6B984723684FF40051082061
:2023E0009B699847236809209B6B984723684FF4005109209B699847236805209B6B9847A1
:2024000023684FF4804105209B699847236806209B6B9847236806209B694FF48041BDE831
:2024200010401847920600200428004010040542B80100102820086028200840B4010010A0
:202440002DE9F84305462A4B2A4A1B780E465B0013602949037804320B601368274C5F0661
:20246000FBD40323236002200AF0D0F92368D807FCD4FFF739FF012E034624D900B3013539
:2024800006F1FF390224DFF870801C4F02E0B4421BD2013415F8012B631E9945C8F8002043
:2024A000F5D901233B6002200AF0B0F93B68D907FCD4FFF719FFB442034604D20028E8D173
:2024C0000020BDE8F883002BFAD00C4C0523236002200AF09BF923461A68D207FCD4FFF78A
:2024E00003FF064A13685B06FCD4BDE8F88300BFE92B002000280040082800400428004087
:2025000010B50C4B0C4C1B780C495B000C4A2360086013680A4C5906FBD4072323600220F5
:202520000AF074F92368DB07FCD4BDE81040FFF7DBBE00BFE92B00200028004008280040A8
:20254000042800402DE9F84F8146274B274A1B7888465B0043F00103254913600B68244A53
:2025600013F04004FAD116460B23136002200AF04DF9B346DFF87CA008F1FF370125A742C0
:2025800016DDFDB13368D807FCD4FFF7ADFE05460028F4D0DAF80020092309F80420013400
:2025A0000220CBF80030E4B20AF030F9A742E8DC45B10F4A13680E4DD907FBD4FFF794FE44
:2025C000044618B900242046BDE8F88F094BC8441A68052308F8012C02202B600AF016F93D
:2025E0002B685B06FCD4EEE7E92B00200028004004280040082800402DE9F04F0546484F93
:2026000083B098463B780192464A5B0013608A460378454904320B601368444C5906FBD452
:202620000323236002200AF0F1F82368DA07FCD4FFF75AFEBAF1010F034625D900B3013577
:202640000AF1FF390224DFF8E0B0384E02E054451CD2013415F8012B631E4B45CBF8002069
:20266000F5D20123336002200AF0D0F83368DB07FCD4FFF739FE5445034605D20028E8D1E4
:20268000002003B0BDE8F08F002BF9D0274A3B78154624485B0043F001030B210360022021
:2026A00011600AF0B3F8AA461F4F08F1FF3601244FF0000BB34516D2002CE1D02B68D807DA
:2026C000FCD4FFF711FE04460028F3D03A680199092301F80B200220CAF800300AF096F8C8
:2026E0000BF1010BE6E7002CCAD0104A13680F4CD907FBD4FFF7F8FD0028C1D0019A0A4BCC
:20270000424490461A68052308F8012C022023600AF07CF823685B06FCD40120B1E700BF3F
:20272000E92B00200028004008280040042800402E4B10B504461970FFF7F0FDB0B12C4B55
:202740001A78A24218D02B482B4900221C7002600A601B788BB1012B2BD0BDE81040274B5D
:2027600027481B6827491B6801221847FFF7E8FD1F4B1A78A242E6D110BD234C0520236894
:202780004FF4C0419B699847236806209B694FF4C04198472368052106221948DB6C9847DA
:2027A000236808209B6B9847236809209B6B9847D3E7154C082023684FF4C0419B699847F3
:2027C000236809209B694FF4C04198472368082109220B48DB6C9847236805209B6B984731
:2027E000236806209B6B9847B7E700BFE92B0020920600200428004010040542AC01001076
:2028000000200040006CDC02B401001010B5064C042023685B699847236804205B6B98478C
:202820000128F9D110BD00BFB801001038B5194A00200021C2E90001174B04201B685B6B44
:202840009847012801D0FFF7E1FF134B00201B68DB699847114B0121114A196013689B0736
:20286000FCD5104A10491368096823F4807323F001030E4C13600B6820460D49984740F2BA
:2028800021220C490C4B04253120256008601A6038BD00BF98060020B8010010282008607D
:2028A000282008400C000140C801001000000140002100043C0001400800014010B4094920
:2028C000094C0B68226808688342FAD1DB01074903EB52620023C1E900235DF8044BD1E98A
:2028E00000017047082009400C2009409806002010B50B490B4C0B68226808688342FAD10F
:20290000DB01094903EB52620023C1E9002302F045F900B910BDBDE8104002F011B900BFD1
:20292000082009400C2009409806002010B509F065FF034B1C6808B909F064FF204610BDAF
:2029400008200940704700BF0146012000F060B809F042BF2DE9F04109F050FF194F1A4ACB
:202960001A4E1B4901243B68002535600C60146080461B682846232198473B6820461B68C3
:2029800024219847134A1449136823F4E02343F4403313600D6009F01FFF104B1049114A14
:2029A0001B6800F500700860146034601B6914209847B8F1000F01D0BDE8F081BDE8F041B3
:2029C00009F020BF84010010A000244300002443800024430020094008200940B00100109A
:2029E0001C200940A0022443064A074B10681B68DB0706D5054B1B681A1A30EA220028BFC5
:202A0000184670471C2009401420094018200940431E012B00D97047C30709D50B4B82077A
:202A200019600ED50A480B4B012201601A6003E0830705D5064B1960074B01221A607047DD
:202A40007047044B01221A60704700BF182009401C20094080022443A0022443014B186899
:202A6000704700BF3008002008B5FFF771FF124B1860FFF73DFF114B1B686BB9104B1B687D
:202A800003B908BD0F4B10490020012208601A60BDE8084002F062BA0A4B4FF480721A60DE
:202AA00009F09AFE00F2052020F4FF70074B20F001001860E2E700BF30080020A000244329
:202AC0008000244304200940800224431C200940820702D5034B01221A60C30700D4704794
:202AE00009F090BE000C084008B509F087FE074B1A68012A03BF0649022219600022002809
:202B000014BF104642F0010008BD00BF000C084051E5CC1A03490448044B012208601A6079
:202B2000704700BF00000840FFFF0F00000C084038B5FFF7D9FF064C064D0749074A012351
:202B400025600B601360BDE83840FFF7C1BF00BF00000840FFFF0F000C00084004010043CF
:202B600003490448044B012208601A60704700BF00000840FFFF0F000C00084010B504463B
:202B8000C0B200F081F9204610BD00BF70B506460024451E04E015F8010F00F075F90134DB
:202BA00030460EF091FD8442F5D30A2000F06CF900F07EF90128FBD0204670BD70B50446A9
:202BC000B0B10078C0B1A9B10025661804E014F8010F38B1B44205D000F056F9631C05F146
:202BE0000105F4D100F064F90128FBD0284670BD0546F7E70D46F5E70546F3E710B40B4B97
:202C00000B4C13F8012FFF2A0ED1A342F9D1094A39B11144013801390B78914200F8013FD8
:202C2000F9D15DF8044B7047034AF1E7C7FF0100CFFF0100F0120050C8FF010038B50C4D54
:202C400002202B685B6998472B6802205B6B984701280446064BF7D11B684FF40070DB69BC
:202C60009847044B044A1C6013689B07FCD538BDB801001028200860282008402DE9F04327
:202C800040F2F275DFF8E08083B0FFF7D7FFD8F800302B4EDB682B48984733682A4C5B6982
:202CA000152098472368DFF8C490284F23F4FE63D9F8002023F0020323603D60D36B1D20B7
:202CC00098472349D9F800204FF0FF334FF0005008600093D2F840C01A481C211D22E047EE
:202CE000D8F800301748D3F804C01A494FF4E1326023E04740F2011240F2013E1649174B0C
:202D0000142008601968164841F01001196003681449002B0CBF134673460B603D6003683A
:202D200053B12368326843F0500323601369152003B0BDE8F043184703B0BDE8F08300BF3C
:202D4000B001001000100040381000404410004090200240006CDC02341000402C1000400A
:202D60003408002030100040D0010010B401001008B5064B02201B685B6B9847012803BF8E
:202D8000034B186800F00100002008BDB80100106C20084038B50446FFF7EAFF18B1264AA3
:202DA00013681907FCD4032C03D0244B1B6803B138BDFFF7DDFFF0B9214D4FF400702B68DC
:202DC0001B6A9847032C2CD01E4B01211E4A196013689B07FCD51D2000F0A0FA1C2000F017
:202DE0009DFA4FF0FF3000F099FABDE838404FF0FF3000F093BA154B15481B68DB68984721
:202E0000144B15201B685B69984740F2F270124A1249136823F4FE6323F0020313600860C7
:202E2000CAE72B684FF400709B6A98472B684FF400701B6B9847C7E718100040340800209A
:202E4000B80100102820086028200840D001001000100040B001001038100040441000405B
:202E600010B509F0CBFC0446054800F03BFA054B00221A6004B110BDBDE8104009F0C2BC37
:202E8000800400203408002010B50446FFF770FF08B9FFF7F3FE044B2146BDE810401B68E8
:202EA0000248DB69184700BFD00100100010004008B5FFF75DFF18B1024B1868C0F3C0001D
:202EC00008BD00BF1810004038B5FFF7B7FE40F2F2710C4B0C4A1B68116013F0500F10D0F6
:202EE0000A4C0B4D05E02B681B699847094B1B6823B923680848DB06F5D538BDC0B29847CA
:202F0000F7E738BD401000404410004018100040D001001034080020001000402DE9F0417E
:202F20000F461646054609F069FC00221446DFF894C1DFF894E14C484C490123DFF88C8112
:202F4000CCF80020CEF8003003600B60D8F8003020461B6801343F219847042CF6D1DFF89E
:202F60006C810024D8F8003020469B6801343F219847032CF6D13E4B1B68FFF7F1FD3D48F8
:202F800002F08EF8044630B1A368032003B198472468002CF8D16B1C0FD0374937480A6875
:202FA0000123AB4022EA0303046846F000520B603A432846236800219847314D314A0024FE
:202FC0002B6814609B690720984700F08DFA00F04DFA2D482D4903682D4A23F003030360E9
:202FE0000B682C4823F4C0530B601368296823F00F03136004608B6938209847264B274D3D
:203000001B682C60DB6801209847254B254A2C601C60136813F02004FBD1DFF8B4E0224F2D
:2030200022481849224B234A0126114DCEF800603C6004600C601C602B681F491368096871
:2030400023F0030313604B681C48032198470C4B1B4A124812491B6804600C6016602A68FE
:203060009B6BBDE8F0411847A0002443C00024432C20094038080020D0200240B4010010FB
:20308000B80100100C40094000100940041009400810094080012243A0010010401009408B
:2030A000200422431410094040012243440122430800094024220840D8010010004003407F
:2030C000181009400000244380002443840100108801044370B509F091FB01F0BDFE00284E
:2030E00040F0A080FFF780FC0446FFF731FC201A202800F19B80654801F0D2FF0446002832
:2031000000F0AB800225636823B19847A84228BF2846C5B22468002CF5D101F047FD04463C
:2031200001F03CFD002840F0A180012D7ED0574801F0B6FF0446002800F081800626A36891
:203140000BB1284698472369246826EA0306002CF5D1FFF705FD730706F0060572D4002D5D
:2031600075D100F0C1F94A484A4903684A4A23F0030303600B68494C23F4C0530B601368A7
:203180004748216843F00F030024136004608B6939209847434B444E1B683460DB68012010
:2031A0009847424A424B34601460186810F02000FBD109F0DDFE062D63D03E4C3E4D3F4EC7
:2031C0002B682368326823F00303236053683C4803219847314B1B689B6B98472B6809F0E9
:2031E000BBFF384A33680021116035485B68012198472368344A012143F0030323601160CD
:203200002B6809F0DBFFFFF773FBFFF7A9FC1F4801F046FF044628B1E36803B1984724681F
:20322000002CF9D1BDE8704009F0ECBA09F0EAFA264A136823F00403136030BF70BDFFF73D
:203240008FFC0625204B00221A60002D89D0134B28461B689B69984783E701F0A7FC0446B1
:2032600001F09CFC022500283FF461AFFFF726FB241AFFF7F3FB00EB44210220FFF7C8FBCF
:2032800053E7022009F064FB97E700BF38080020001009400410094008100940B8010010FD
:2032A00080012243A0010010401009402004224314100940242208402C200940D8010010DC
:2032C00000400340800104430C40094010ED00E0034A136823F00403136030BF704700BF77
:2032E00010ED00E00146014801F0E6BE380800200146014801F024BF3808002010B5054896
:2033000001F0CAFEBDE81040034B02201B6820211B6818473808002084010010421C10D0B6
:2033200010B50446074B00211B684FF4C0421B689847054901230A68A34022EA03030B609D
:2033400010BD7047B4010010D020024038B504460D4609F053FA01230549064AA3400B6012
:2033600042F8245000B138BDBDE8384009F04ABAE02002403C080020064B002103F1800251
:2033800043F8041F9342FBD1034B10201B681B69184700BF38080020B0010010F8B5094B69
:2033A000094F1D6800241D60012606FA04F32B42E0B203D057F8243003B198470134202CE8
:2033C000F3D1F8BDE02002403C08002008B520B9064B01201B685B689847044B40201B686F
:2033E0005B689847024B00221A6008BDA00100100002224338B50A4C09F090FA23680120F3
:203400009B689847236805461B6801209847236801209B6898471128F9D1284638BD00BFBE
:20342000A001001010B582B0FFF7E4FF0446042009F062FA032810D00420032109F034FACE
:20344000042009F059FA0328FAD10090002106484FF040521C2309F0DDF9204602B0BDE86B
:203460001040FFF7B3BF00BF00A00C4010B5FFF7C1FF0446042009F03FFA022808D00420A8
:20348000022109F011FA042009F036FA0228FAD12046BDE81040FFF799BF00BF10B5FFF7A0
:2034A000A9FF0446012009F027FA012803D00320012109F0F9F92046BDE81040FFF786BF1D
:2034C00010B5FFF797FF0446012009F015FA012802D0044B9B6B98472046BDE81040FFF7A8
:2034E00075BF00BF4800001010B5FFF783FF00210446032009F0D8F9012009F0FDF910B11B
:20350000034B9B6B98472046BDE81040FFF75EBF4800001008B50BF08FFB30B1044B5B885D
:20352000022B0CBF0120022008BD022008BD00BFD808002070B582B00BF07EFB40B91448C5
:2035400001A90BF081FB01280AD0002002B070BD0F4C6388022B08BF0120F0D102B070BD4D
:20356000FFF7F6F96FF03F05094C2D1A03E0FFF7EFF9C54209D56088054E0228F7D1A0F1C3
:203580000200B0FA80F04009E8E77088F7E700BFD808002030B589B002A8182140F6020227
:2035A0000BF02EFD164B9DF81A201B689DF81B401979144D61F3050211468DF81A205A790B
:2035C00002A862F387118DF81A109A7901A9012362F347048DF81B4007958DF816300BF0E2
:2035E00033FB012802D0002009B030BD02A80BF07DFBA0F10100B0FA80F0400909B030BD24
:20360000A8040020AC04002008B5FFF7C3FF012801D0002008BDFFF78DFFC0B208BD00BF42
:2036200038B50A4D00202C6803E024682B68A3420AD02379032BF8D1054801F06BFC24680D
:203640002B680120A342F4D138BD00BFCC0800207806002008B50346B32994BF0A46B4226B
:20366000024819460DF0E0FD012008BD5A090020F8B5144E35682B79032B01D00020F8BD3A
:203680002B7A032B04D92F7AFFB23C1F8C4205DD2B680020336028712872F8BD224605F189
:2036A000090107370DF0C0FDE95D042049B289B20AF012F93368002219681A7231601A717D
:2036C0002046F8BDD408002010B582B00BF092FC04460BF0B1FA08B902B010BD084801A929
:2036E0000BF0B2FA0128F7D1638803F44063002BF2D1638803F44063002BF5D0ECE700BFB8
:20370000010001040B2801D001207047082A01D0022070470029FBD0054B0139A3F10800D1
:2037200013F8012D834201F8012FF9D1002070470809002010B584B00BF07EFA08B904B0AF
:2037400010BD42F20343002402A801A902940394ADF808300BF078FA0028F0D09DF90A307B
:20376000803302D0204604B010BD9DF80C0000F00C00A0F10400B0FA80F04009DFE700BFC3
:2037800010B582B00BF058FA00B3124C6388022B1CD1FFF7CFFF0028FBD101A90E480BF01C
:2037A00053FA02E06388022B03D10BF045FA0028F8D142F202426388934207D042F2074039
:2037C000181AB0FA80F0400902B010BD012002B010BD00BFD80800200100010430B585B056
:2037E0000BF02AFAB8B10D4B5B88022B13D142F20345002402A801A902940394ADF80850D7
:203800000BF022FA38B19DF80A305B06F2D09DF80C0005B030BDFF2005B030BDD8080020B2
:2038200038B50BF045FC012814D0FFF783FF04460028FAD1FFF7A4FF074D0BF0C9FAFFF7FC
:2038400053FE06480649074A074B6C8004710C7114711C71012038BDD80800209C0A00200B
:20386000100A0020280B0020B40B002008B50BF01FFC012809D00BF0DFF930B10A4B5B881B
:20388000022B02D1FFF756FF08B1002008BDFFF7A5FFFF28F9D000F00300A0F10100B0FA86
:2038A00080F0400908BD00BFD8080020F8B5FFF7F5FD0BF0FDFB01280CD00BF0BDF928B9AC
:2038C0000BF02EFB012807D00020F8BD194B5B88022BF5D10120F8BD174A1849184B194C55
:2038E00092F805C04F795E7994F805E060F3830C60F3830E842560F3830760F3830682F8C7
:2039000005C0146084F805E02160D580CD804F710B601A60DD805E71E5800BF019FBFFF7AF
:20392000CFFDFFF737FE0128CED1BDE8F840FFF701BE00BFD80800209C0A0020280B00205E
:20394000B40B0020100A002030B585B007285AD8DFE800F01F26313E41595F044D4C21773A
:203960000BF06AF900282CD06388022B08BF002527D1FFF705FF012814BF03240024FFF792
:20398000D9FD012818BF0324002D3ED1204605B030BD012973D000296BD0022005B030BD51
:2039A000A1F10B030F2BF8D83A4CC9B2A37B8B4269D0A173D4E7374C61860BF03DF90028A6
:2039C000D2D1FFF773FF012851D0032005B030BD304C2186C4E731F00302DED12D4CC1F3FD
:2039E0004005237E607E61F30003DBB243F0020365F3820303F0870362F3C71362F3C71032
:203A000023766076ACE70120C1E7FFF709FF2046BDE701F115031A2BBFD81F4D0C2455F804
:203A200034301D4899424FEAC4022EDD14F1FF34F5D20BF001F90028A9D04FF0000205EB12
:203A4000C40423796079A17903F03F0360F3871361F34702102403A802A98DF80E308DF87E
:203A60000F20ADF80C400BF0EFF800208FE705467FE70191FFF7D4FE0199084687E7FFF757
:203A800015FF0128A1D1002081E7044B02441A60CFE700BFD8080020B81A0100A8040020CC
:203AA00079B130B50C4683B0102874D8DFE800F0101D22272C733C6D42737373736064683F
:203AC0000B000220704705230B60002003B030BD0BF0B2F830B13E4B5888A0F10200B0FA83
:203AE00080F0400920600020F0E7394B00209B7B0B60EBE7364B00205B8E0B60E6E7344B5E
:203B000000201B8E0B60E1E7314B002008601A7E02F001020A60197E01F004010029E2D046
:203B200042F002022260D1E72A4B00201B681B680B60CBE70BF080F878BBFFF7B7FE0128E3
:203B40003BD140F20343002201A869460192ADF804300BF079F8012837D06FF07F05FFF786
:203B60005FFE15F1800F25600CBF03200020ADE70B230B600020A9E71A230B600020A5E78F
:203B80006FF014030B600020A0E7114B002093F91C300B609AE7012098E70D4B5B88022B55
:203BA000CBD140F20343002201A869460192ADF804300BF049F8012804D06FF07F0323606E
:203BC000032083E79DF90250CBE79DF90250C6E7D8080020A804002070B588B006460BF0B9
:203BE0002BF870B3294B5B88022B08BF002528D1FEF7AEFE6FF01F04241A03E0FEF7A8FE37
:203C0000C44235D5FFF796FD0128F7D080BB182102A842F601420BF0F3F91D4B0120F6B26A
:203C20008DF8176006930BF0C9F902A801A90BF00BF878B901240BF0D5F915BB204608B0D3
:203C400070BDFFF733FE012816D0012008B070BDFFF73EFBBDF80A3003F44063002BF7D051
:203C6000BDF80A40A4B2B4F5105418BF0124E2E725B9022008B070BD0546B9E7FFF7D0FD8A
:203C8000F7E7FFF7CDFD2046E0E700BFD80800205A09002010B50C46B32C014694BF22461F
:203CA000B42204480DF0C0FA2046BDE81040FFF793BF00BF5A0900200B2801D0012070476A
:203CC000082A01D0022070470029FBD008B5124B083103F1080011F8012D03F8012F83429E
:203CE000F9D10AF0A9FF48B10C4B5B88022B05D1FFF746FDFFF71EFC032008BDFFF7D6FD28
:203D0000012801D0032008BDFFF73AFDFFF712FCFFF786FDF6E700BFFF080020D808002054
:203D200010B50BF0C5F9012817D00AF085FFB0B9FFF7BCFD012804460DD1FFF74FFDFF28A5
:203D400005D000F0030010F1FF3418BF0124FFF767FD204610BDFFF763FD012010BD094B46
:203D60005B88022BE4D1FFF7E5FC0028FBD1FFF735FDFF28F1D000F0030010F1FF3018BFA9
:203D8000012010BDD80800202DE9F84342F601092A4F2B48FFF7A6FA0BF08EF83846002100
:203DA0008C220DF01BFB00218C2226480DF016FB00218C222448254C0DF010FB00218C2274
:203DC00023480DF00BFB234E234B00252946204680221F60376075600DF000FBDFF884E0DC
:203DE00001234FF0390CFF207B21A6224FF0190807272661A4F8009084F80E8084F80FC002
:203E0000C4F814E02776A076E17622776373637684F83730FFF74AFD0128044603D02C46C8
:203E20002046BDE8F8830D480BF0FAF829460C4801F050F82046BDE8F88300BF9C0A0020B3
:203E400094040020100A0020280B0020D8080020B40B0020CC080020D4080020581B0100DA
:203E600078060020BC0800200AB90020704708B508461146FEF7A2FE002008BD0FB400B5D2
:203E800083B004AB53F8041B04481A46019300F025F803B05DF804EB04B07047D80400202B
:203EA000102970B50C46054602D80AE0102C0BD92B686868084910229847103C0028F5D025
:203EC00070BD08460029FBD022462B6868680249BDE87040184700BFA41B01002DE9F04FD5
:203EE00082460F468FB007924FF0000B3B78002B00F0E880252B08BF3E461BD03C4602E063
:203F0000252B04D014466378621C002BF8D1974216460CD0D51B39462A46DAF80030DAF812
:203F200004009847002840F079826378AB44002B00F0C88073780136002B00F0C38019463F
:203F40000025A1F12003102B1BD8DFE803F0171A1A141A1A1A1A1A1A1A111A0E1A1A090014
:203F600045F0100516F8011FEBE745F00105F9E745F00605F6E745F00805F3E745F0020567
:203F8000F0E7A1F13102082A0B46374600F2DC80A1F13002092A4FF000040AD804EB8404A4
:203FA00003EB440417F8013F303CA3F13002092AF4D92E2B00F0D1804FF0FF366C2B00F0B5
:203FC0003D81682B00F04281782B00F28180DFE813F079007F007F007F007F007F007F000A
:203FE0007F007F007F007F007F007F007F007F007F007F007F007F007F007F007F007F00D1
:204000007F007F007F007F007F007F007F007F007F007F007F007F007F007F00BE027F006F
:204020007F007F007F007F007F007F007F007F007F007F007F007F007F007F007F007F0090
:204040007F007F007F007F007F007F007F007F007F007F00BB027F007F007F00B802B502BF
:20406000B2027F007F007F007F007F007F007F007F007F007F007F007F007F007F007F001B
:204080007F00AF027F007F007F007F007F007F007F007F00AC027F00A902A602A302A00231
:2040A0009D027F00A6027F007F007F007F009A0297027D007F007F0091027F008E027F006D
:2040C0007F00940258460FB0BDE8F08F45F4407505F4E063B3F5806F07F1010700F0CE804B
:2040E0004FD9B3F5C06F00F0A581B3F5E06F00F09A81B3F5A06F7FF4F9AE079B012C1A6887
:2041000003F1040307938CBF04F1FF340024EB078DF8202000F1D08150462146FFF7C0FEC9
:20412000002840F07B81DAF80030DAF8040008A901229847002840F071810BF1010C0CEB56
:20414000040505EB040BD1E62A2900F08C800B462E2B4FF000047FF42FAF7B78791CA3F1F7
:204160003002092A7AD80F46002606EB860603EB460617F8013F303EA3F13002092AF4D9D3
:204180001CE7B3F5807F00F0B080B3F5407F7FF4ADAE079BC34A1968C34815F4804F03F119
:2041A000040308BF9046079318BF80460A460023002900F094810DF133094846110941EA76
:2041C00003714FEA131E02F00F0673460A4618F8061000F8011D52EA0301EFD1B9EB00060B
:2041E000034600F07E810336B4424FF030024FF078014FF0230300F8022C8CBFA41B002476
:20420000EA0700F8011C00F8033CA0F1030800F1A18150462146FFF743FE002840F0FE80A8
:204220004146DAF80030DAF8040032469847002840F0F4805E4406EB040B57E67B786C2B93
:2042400000F00481013745F06005BDE67B78682B00F09381013745F04005B5E62A2B00F058
:2042600091810F46A8E6079B771C1C680433002C0793B8BF45F0010573789AE6079BD3F809
:20428000009004330793B9F1000F00F08F8299F80030002B00F0B2824B4613F8012F002AFD
:2042A000FBD1C9EB0308002E02DBB04528BFB04644458CBFC8EB04040024E90700F1E080A2
:2042C00050462146FFF7ECFD002840F0A7804946DAF80030DAF8040042469847002840F05D
:2042E0009D80D84408EB040B00E6002EABBF25F0100501230196019315F40053049305F0A4
:20430000E00300F0A880402B00F07F8200F24181002B00F02D82202B40F05A82079B1A1D98
:20432000079293F90020D317002A73F10001C0F22A82CDE902230023059305F4C053B3F517
:20434000805F00F09281B3F5C05F00F0BF81B3F5006F00F067810DF136064FF00008019B78
:2043600041F20802984541F6080303EA050380F0338101999342C8EB0101019100F046815B
:2043800041F6080201999342414400F031814FF000094A46049B73B1059B002B40F08381AC
:2043A00005F00603022B00F01B824048062B04BF02464FF0010909EB01039C428CBFE41A19
:2043C000002415F00103049306D1E80640F1F681019B2344049C0193B9F1000F07D011468E
:2043E000DAF80030DAF804004A469847B0B9019B08EB0B05102B40F291819B4603E0BBF17F
:20440000100F40F28E81DAF80030DAF80400284910229847ABF1100B0028F0D04FF0FF30D5
:204420000FB0BDE8F08F079B1A680433C2F800B007935BE5DAF80030DAF804001D49012299
:2044400098470028EAD10BF1010B4FE5BB7845F080050237B8E5402B00F0C68100F2A980DE
:20446000002B00F09881202B40F02181079B049A05921A1D07921A780023CDE902235CE771
:204480004946DAF80030DAF80400424698470028C4D150462146D844FFF702FD00283FF428
:2044A00021AFBBE7741B0100601B0100941B0100B41B0100A01B0100DAF80030DAF804006A
:2044C00008A9012298470028A8D1504621460BF10105FFF7E5FC00283FF433AE9EE70DF1F3
:2044E0003303302203F8012C581E04267CE645F41065EDE545F48065EAE545F4C855E7E57B
:2045000045F48855E4E545F4E065E1E545F48135DEE545F40075DBE545F40245D8E545F4E2
:204520002455D5E545F4A065D2E545F4C135CFE545F4B245CCE545F4A135C9E545F48445D0
:20454000C6E545F44245C3E545F4E135C0E545F4C065BDE54146DAF80030DAF8040032467D
:20456000984700287FF45AAF504621465E44FFF797FC00283FF45FAE50E7BB7845F0200564
:20458000023721E5079ABB78111D07911668023714E5602B00F0EC80802B40F01981079B94
:2045A000073323F0070303F108020792D3E90023BAE6602B00F0EF80802B78D1049B059379
:2045C000079B073323F0070303F108020792D3E90023CDE90223B0E6934200F0EC800022A8
:2045E000019241F608020199934241447FF4CFAEDDE9022313433FF4CAAE874B15F4804F6D
:20460000864A4FF0020908BF1A46C3E60B46002908BF01230193019B4FF000094A4603EB55
:204620000801B7E6DDE9028942464B46134300F0E7800DF136031E460693404649460A2248
:2046400000230CF0E1FA30324046494606F8012D00230A220CF0D8FA8046894658EA0903BD
:20466000EBD1069BC6EB030879E6DDE90223134300F0C6800DF1360306939E46DDE90223AC
:20468000D00840EA4370DE0802F007013346024630310EF8011D52EA0301F1D1069B7646E0
:2046A000CEEB03085BE64FF001095D4A83E605F4C053002200200021B3F5805F0592CDE959
:2046C0000201D2D0B3F5C05F40F08580DDE90201544A554B15F4804F14BF9046984602468B
:2046E0000B46134300F08C800DF1360306931E4602460B46110941EA03714FEA131E02F035
:204700000F0073460A4618F8001006F8011D52EA0301EFD1069BC6EB030820E6019B9B4665
:204720004BB15A46DAF80030DAF804003F49984700287FF473AE31464246DAF80030DAF80F
:2047400004004D44984700287FF468AE019B2B441E46049B002B3FF46EAD50462146FFF7BA
:204760009FFB00287FF45AAE06EB040BFFF7BEBB079B1A6804330793002A4FEAE27373F17C
:204780000001BFF6D6AD524263EB4303CDE9022301230593D1E5049A079B05921A680021F1
:2047A000104604330793CDE90201C6E5DFF884904FF0060877E5012301932CE75046214612
:2047C0000292FFF76DFB029A00283FF405AE25E600220023ADE5DDF814800DF13606BEE515
:2047E000134A4FF00109E6E5079B049A05921A1D07921A880023CDE902239EE5984652E569
:204800004FF000080DF13606A9E5079B1A1D0792B3F90020D31787E58C1B0100881B0100A9
:20482000901B0100601B0100741B0100B41B0100F8180100981B010010B50446006830B1D3
:20484000002100F047FB54F8040F0028F8D110BDF0B5038883B005465BB14A2B04D1882933
:204860001BD0012003B0F0BD00230380032003B0F0BD194800F014FC044630B1201DA168D1
:2048800000F064F92468002CF8D1144B01221A704A2301202B8003B0F0BD0F48019200F0CB
:2048A000FFFB04460028F3D0019A031D9A4205D02468231D002CEBD09A42F9D1064821464F
:2048C00000F03EFC064E6269A369376832600BB1E06998473760DBE7400C0020EA2B002074
:2048E000500C002010B5064B002406481C7000F0D3FB2146BDE81040034800F0EBBA00BF6F
:20490000EA2B0020400C0020E004002070B504460D48049D0078A261E361656130B9A1601E
:204920000A482146BDE8704000F0C6BB084D094B2E68201D2B6000F009F92E602146BDE865
:204940007040024800F0B8BBEA2B0020400C0020500C0020E004002010B5044C82B0246806
:204960000094FFF7D3FF02B010BD00BF500C002070B5094B04461B783BB1084D084B2E68A1
:2049800004302B6000F0ECF82E602146BDE87040044800F091BB00BFEA2B0020500C002042
:2049A000E0040020400C002010B50A4B04461B783BB9C36003612146BDE81040064800F07B
:2049C000BFBB043000F0FCF82146BDE81040024800F0B6BBEA2B0020400C0020704700BF27
:2049E00010B50E4C2368B3B1FDF768FF22685168136892681944091A4AB192E81800234422
:204A00001B1A9268994228BF1946002AF5D1044B0844186010BD024A136010BD440C00207A
:204A2000480C00202DE9F041038805467BB1592B08D1872912D0822920D059232B800120E7
:204A4000BDE8F081002303800320BDE8F081254A0120136059232B80BDE8F081214F3B680E
:204A6000002BEAD0D9688A4203D024E0D9688A4220D19B68002BF9D13B60DEE7194F4FF070
:204A800000083C68002CD8D0002604E0A3682646002BD2D01C46204600F088FA0028F5D021
:204AA000E0688821224600F0E1F978B10E4800F031FAEBE73B6099680029BED0C868824220
:204AC0000BBF89680B4699608968F5E7E060A3682EB1B360C4F80880FFF782FFD1E73B60B9
:204AE000F8E700BF440C0020F004002010B50446104800F00FFA1049E3680A684BB142B12F
:204B000094420FD0134601E09C420BD09B68002BFAD10A4BA2601B680C60E360BDE8104076
:204B2000FFF75EBF054B1B68E360BDE81040FFF757BF00BFF0040020440C0020500C00208C
:204B4000014800F0E7B900BFF004002010B5044600F018FA2046BDE81040FFF7C7BF00BF02
:204B600010B5044600F016FA2046BDE81040FFF7BDBF00BF10B5044600F012FA2046BDE884
:204B80001040FFF7B3BF00BFC068B0FA80F04009704700BF05C81044704700BF024B186839
:204BA000003018BF01207047440C0020024B186808B1024B18687047440C0020480C0020B8
:204BC00010B5114B04461A68904218D05AB19368834208BF13460AD02BB19A68A24206D0D1
:204BE0001346002BF9D10023A360E36010BDA2689A60FFF7F5FE0023A360E36010BD826824
:204C00001A60FFF7EDFEEEE7440C00202DE9F843DFF8A480274DD8F800702E68874247D07E
:204C200077B33B4601E0002B3BD01B689842FAD133B3837B8946044623B3002383736FB17E
:204C4000BC424FF0870106D0BB7BDB0703D53846224600F033F83F68002FF1D1A3683BB139
:204C60004C4505D02C6004F10C00832100229847D8F80000844208D12368C8F800302E6024
:204C8000BDE8F88338468442F6D00028F7D00368A34208D0002BF2D01A68A24204D0134653
:204CA000F8E7BDE8F883034622681A602E60E7E73B46BDE7500C0020540C002070B5866818
:204CC0007EB104460A4802230460A37304F10C000D46B0470238012804D9832D02D0012339
:204CE000A37370BD20462146BDE87040FFF78EBF500C002070B50C4A0C4B146800251D7090
:204D000084B1012601E0246864B1E37B002BFAD0A673E573204682210022FFF7CFFF246876
:204D2000002CF2D170BD00BF540C0020EF2B0020024B1878421C1A70704700BFF02B002068
:204D4000014B1968FFF762BF500C002070B407480749084A0023084D084C8A2603700B6084
:204D600013602E70237070BC704700BFED2B0020540C0020500C0020F02B0020EB2B002048
:204D80002DE9F8432B4D2B780BB1FFF7B3FF2A4E33781BB3DFF8B4E028499EF80040013B64
:204DA00004EB4402920088180134895CDFF8A0C04268DFF8A0808068214FDBB204F01F049E
:204DC00033708EF80040CCF80000C8F80020397088B1812906D0847BE40705D428781844A5
:204DE000BDE8F88301238373FFF768FF337828781844BDE8F883134A134C12682260002A73
:204E0000ECD0A1460AE020683978837BD8F80020DB0709D403682360002BE7D02B78002B81
:204E2000F1D0FFF767FFEEE7FFF748FFD9F80000F0E700BFEF2B0020ED2B0020580C0020E6
:204E4000EC2B0020540C00204C0C0020EB2B0020DC0D0020D80D0020024A034B10781B782A
:204E600018447047ED2B0020EF2B0020F0B50F4E3478202C17D00E4BDFF838E01B78DFF81A
:204E800038C0234403F01F0303EB4305AD000EEB05070134B86034707A608CF800300EF831
:204EA00005100020F0BD0120F0BD00BFED2B0020EB2B0020580C0020EE2B002038B5837B6D
:204EC000034CDB07256801D5FFF7F8FE256038BD500C002070B404460D4D2868A04206D04C
:204EE00038B1034600E023B11B689C42FBD170BC7047002CFBD0012600232060A673A381BE
:204F00000A4620462C60812170BCFFF7D7BF00BF540C002038B1837B013B012B03D8024A40
:204F200001231370C3737047EF2B0020FDF70ABD38B5094C049D226822B180E82A00206096
:204F4000002038BD024680E82A0008462260FDF7FBFC002038BD00BFE00D002010B5084CAD
:204F6000206858B100224368816822609847236823B1BDE810401868FDF7E6BC10BD00BF93
:204F8000E00D002010B541600446FDF797FC206010BD00BF90E80C0013440360704700BF0D
:204FA00010B50446FDF78AFC206010BD10B50446FDF784FC23686268C3F10103184482426B
:204FC0002CBF0020012010BDF8B504880546672C0CD0792C1BD01CB1002303800320F8BD0A
:204FE000FFF7A6FE1E4A1F4B10701C601D4C264604E00A2813D023687E2B2BDD1A4800F0ED
:20500000D3F8431CF5D167232B800120F8BD852901D00120F8BD134C00232360E6E7114C11
:20502000124F23680E49002603F1010E3A4609783046FE54C4F800E0FFF718FF0C4B3246C3
:2050400018688521FFF712FF0028E5D179232B800120F8BD05495A1CC8543260CEE700BF42
:205060008B360020EC0E0020640E00206C0E0020500C002008B505480549802200F08CF81F
:20508000BDE8084003480021FFF724BF640E0020E40D00200005002000230360704700BF1A
:2050A00000687047006808B904E018460368002BFBD17047704700BF026842B1914203D1D3
:2050C0001BE099420ED01A461368002BF9D100230B6002680AB90EE01A461368002BFBD1D1
:2050E000116070470B68136000230B6000230B600268002AF1D1016070470B680360F3E768
:2051000010B404684CB1A14217D0224602E0994208D01A461368002BF9D10C6001605DF8A9
:20512000044B70470C460B6813600023236004680C6001605DF8044B70470B680360F4E746
:20514000026842B18A4203D10BE0994204D01A461368002BF9D170471968116000221A60A3
:205160007047134612680260F8E700BF03682BB100201B680130002BFBD1704718467047C7
:2051800000B10068704700BF0CF076B908B50CF07DF980B208BD00BF0023013A016002713E
:2051A00043718371704700BF0346807959791A79091A114208D010B4411C1C680A40205C71
:2051C0009A715DF8044B70474FF0FF30704700BF08B5064804F0D8FE054BAA220120002152
:2051E000187059709A70DA7008BD00BF615C00006C10002010B5114C0220A17908F06CFB70
:20520000A379112B0FD0062B0DD03A2B05BF94F8281094F82930002143EA01210120BDE841
:20522000104008F059BB238D618D01209942A8BF1946BDE8104008F04FBB00BF3C2C002074
:2052400070B413780D7A83F002039D42044614D00B891BB94B89B3F57F4F2FD01E4A51F831
:20526000085F13684E68012003F10801A0405E601D601160C0B270BC7047487A5378984230
:20528000E6D1887A93789842E2D1C87AD3789842DED1087B13799842DAD1487B53799842AA
:2052A000D6D1887B93799842D2D1D379CA7B9A42CED1032303FA04F0C0B2DCE78B89FE2B26
:2052C000CCD1054DC9892A68022322F8021B03FA04F02A60C0B2CEE7F80E002010B5084CBE
:2052E0002378012B01D0002010BD01460822A01C0BF068FF00280CBF2046002010BD00BF95
:205300006C10002008B50146102008F0F3FA044B04489B6800219847BDE80840FDF720BC7D
:20532000381D01002953000010B50C461146204602F034FE044B1B6813B19B6820469847C5
:20534000024B1C6010BD00BFD01500207C1000202DE9F041154D07462A4600239078713213
:2053600030B101330C2BF9D14FF0FF30BDE8F081C3EBC30403EB04142E19717008F002FAFC
:20538000DFF830800A4A98F800301168C01A2F55B070CC1808F0F6F998F800202146821AFD
:2053A000F01C0BF041FFB078BDE8F0818010002078100020F22B00202DE9F04F074683B0FE
:2053C00092BB604E894636F8063C15469346FF244FF0FF38DFF878A1002B37D1B8F1FF3FBC
:2053E0004DD0012D06F1B8062BD1B8F1FF3F23D0B82000FB08F5DFF850810F2008EB050632
:20540000A6F81290378208F081FA0146304607F011FF05F1180040444021FFF7B3FD23465A
:2054200058B203B0BDE8F08F474D00262C46238ABB422CD0B83436B3FF2358B203B0BDE860
:20544000F08F36F8063C0125002BC7D03046FFF7ADFD68B13D4B26F806BCE9B29A7822B15E
:205460001A788A4208BF83F802B071335345F5D1B8F1FF3FB5D136F8063C002BB1D1ECB2B0
:205480004FFA84F8ADE7238A0126BB42D2D1638A002BCFD00F20019208F038FA01462046EF
:2054A00007F0CEFE019A0028C4D0F4B211462046FFF74EFF0028019A0CDB0028BCDDB823E6
:2054C00003FB06562346B28A1044B08258B203B0BDE8F08F4FF0000BDA461A4FDFF87090BC
:2054E0004FF0B80837F8063CEBB156451BD038460192FFF75BFD019AA8B100218E468C4600
:205500005FFA8AF008FB00535982104B997831B11978814204BF83F802C00EF1010E713333
:205520004B45F3D1F344B837BAF1000F07D0BBF1000F81D011462046FFF70AFFBDE74FF0B5
:20554000010ACFE7140F0020FC0E002080100020CC1500202DE9F04715090F2D07469A4698
:2055600002F00F043FD00F2C34D0A146A84666195DBB0F2E03DD5CB9E5B9BDE8F08707EB8E
:205580000800C6F1100200210BF028FF002CF3D0DFF87480C9F11000D8F800603844314650
:2055A00022460BF041FE022C26D03444C8F80040BDE8F08738465146BDE8F04702F0D4BB1F
:2055C000454620264FF010094C462A4638460BF02BFECEE7A84605F11006002DF2D14FF020
:2055E00010094C46D4E70F2C4FF01008E8D042464546A146A618E9E70A2DD6D8FF22FE234C
:20560000FA723B73D1E700BFF80E00202DE9F04FDFF8EC82B04D89B0002788F800702F704D
:2056200008F09CF8AD4E3060042008F05DF93368DFF8D0E21C785A7804F0F80100B2C029CF
:20564000CEF8000042EA042274D0E02963D1297893F8049093F802E0D878C2F30A044B1D09
:205660004A46214640EA0E202B70FFF7A5FEB0F1FF3F83465BD09A4AB82303FB0023B3F849
:2056800014A00123A245009734BF4FF0000A4FF0010A019308F076F82B788F4D834246D8D2
:2056A00008F070F82B7898F80080C51A08EBC9098C4AA944B9F57A7F156038D837B13168C3
:2056C00007EB080019442A460BF0AEFD002C78D0009B53B182494FFA8BF3B82000FB0313CF
:2056E00005EB080292B29A821A84BAF1000F40F00D81019BDBB97C4B45441D807B4C2368CB
:2057000023B1FFF777FD23685B68984704F062FC09B0BDE8F08FBB4600973C46744F2A7870
:20572000995C01F0E000602854D041291DD009B0BDE8F08F297893F802E0D878C2F30A04A2
:205740000B1D3A46214640EA0E202B70FFF734FEB0F1FF3F8346EAD0614FB82303FB0077BD
:205760000122336822370092D9E73946501CC0B2034403F12000D3F800A0D3F80490D3F873
:2057800008C0D3F80CE010338342C1F800A0C1F80490C1F808C0C1F80CE001F11001EAD1F8
:2057A00018685B6808604B6098F800302932283388F80030009B4FF0000A2A70D146019344
:2057C00068E7019B002B96D0BAF1000FAFD0464B1C8093E7981890F801900232DFF828A1D0
:2057E0004FFA89FC1344BCF1000FCAF80030BCBF0133CAF80030CA064AD501F0080303F057
:20580000FF0E002B40F0AF81DAF800301A461B78C3F3830343F060033B7012F8010BA7F8C9
:2058200002E0830803F0300343EA8013CAF800207B7001F0040303F0FF02019233B9DAF80B
:20584000003013F8012BBA71CAF8003011F0030100F09680274B5B5CFB7119F0400FC9F310
:20586000011300F06181BCF1000FC0F298810022002B00F08D8020490878012800F0B58139
:205880001E4A00239A4699461360009B019301E70B0700F16E81DAF800301A4633F8010FA5
:2058A0009B78A7F80100FB70787812F804EB00F00F00019202464FEA9E0303F0300040EAE0
:2058C0008E10104303F00F03019A43F06003CAF800203B707870ACE7F22B002078100020B4
:2058E000FC0E0020CC150020282C0020D01500203C2C0020F41B01006C100020F00E0020B2
:20590000F12B0020F40E0020F80E00204FFA8BF7B82101FB07F1DFF834A3C2480AEB0103BA
:2059200019461A8C9C822231BF4E0BF07DFCBD4B06F24C5916F8012C22B116F8031C8F42BF
:2059400000F03B8171364E45F4D100221046B823FFB203FB07AAB54B5FFA8BFCAAF8122035
:2059600003F24C519A781AB11A78624508BF987071338B42F6D1019B002B3FF4BCAE26E707
:20598000DAF8003013F8012BFA71CAF8003064E707F1080204920593A54A0F20D25CCDF8E5
:2059A0000CC0029207F0B2FF05990346029A0498FFF7D0FDDDF80CC009F0080303F0FF0264
:2059C00009F0030E002B36D019F0040F11D1994A0EF1FF331288012BADF81C2040F2188108
:2059E000954B07F1180013F80E2007A90023FFF7B1FD98F8002002F1280388F80030019BED
:205A0000002B3BD1DAF800303268DFF844929B1A2B70002C00F09A80A4F128031A127B71A8
:205A20003A71BB79112B00F0C080009B4FF0000AD14601932EE619F0040F00F0C880BCF177
:205A4000000FC0F2DE807D490B78012B7FF418AF4B7893427FF414AF794A754B102013F8EC
:205A60000E901160029107F051FF029903464A46023107F11800FFF76DFDBAE7DAF8003083
:205A8000197801F0F801F029BED11121B971187800F0F301F03900F00400C0B20329C4D8BC
:205AA000DFE801F0382F2002597802330909A1F5756189B2090241F0F001398513F8011CD3
:205AC00001F00F01A1F5756189B2090241F0F0017985CAF80030002800F0BC80303288F8CB
:205AE000002091E759780433A1F5805189B2090241F0F001398533F8021CCAF80030798540
:205B0000E9E7B3F801100433398513F8011CA1F58051D9E7B3F801100533398533F8021CBA
:205B2000CAF800307985D6E7464A0F20D25CCDF80CC0029207F0EAFE029A0346424907F15F
:205B40000800FFF707FDDDF80CC035E707F01AFE99F8002098F80030801A0344283B1A1296
:205B60007B713A715DE7002360223A707B707B805FE6DAF80020602310463B7010F8013B16
:205B800003324FEA930E0EF0300E03F00F034EEA03037B700388CAF800207B8049E62A7853
:205BA00031680A449278120962E6BB884FF0000ABB85009BD14601936CE516F8020C31469B
:205BC00003EBC00000930BF02FFB009BBAE61D4B102013F80E9007F099FE4A4603461A4919
:205BE00007F11800FFF7B6FC03E7487890427FF447AE134A881C116007F10802059004926A
:205C0000CAE632682B7813449A7802F00F021AE7DAF8003013F8012B8DF81D20CAF800303D
:205C2000DEE600BF3C2C00208310002080100020101C0100F01B01000C1C01006C100020F8
:205C4000F00E0020F81B0100FC1B0100FC0E0020F22B002033F8021BF985CAF800303DE7B7
:205C60002DE9F04FB34EDFF8FCA2002387B033708AF80030054607F0BBFD07F06FFDAE4C53
:205C800004212060092007F027FEAC4B1B680BB1FFF7B0FA04A80190002D00F0A682294653
:205CA00007F0C8FAA64B1B883E2B36D99AF80070D4F8008000230237A24D08F80730A24865
:205CC00008F102032B60FFF709FB002800F00F8108F103032B604FF08009DFF874B29BF8B7
:205CE00001209BF80010130943EA0113DBB2980840EA8313DBB210075FFA83FE5FD1BBF835
:205D0000020000285BD1080740F0F98012F0F00F40F0F5807823029361E0DFF834B29AF80F
:205D200000C0DE4623680CF10105EDB241221D441A700BF1200877460FCF47452860696068
:205D4000AA60EB600EF1100E05F11005F3D1BEE803002860696033780CF1290C28338AF84E
:205D600000C033700199102007F0C4FD774B744D1B689847724B0028B3F8009036789AF8F9
:205D80000080ACBFC0F17D076827C6EB0902C8EB0703B8BF15209A4240F3B880C0F17803BC
:205DA0001E46029307F0D0FD99FBF6F909F101098145C0F2D980002007B0BDE8F08F0907C3
:205DC00003D112F0F00F00F084802A68DBF800001346106003F804EB2B60602302939BF8AC
:205DE0000630112B00F005822A6802F8013B9BF807302A60402B00F00582FF2B00F02282FE
:205E0000012B61D02A6802F8013B2A60BBF808304F4A3BB953892BB993891BB9D389002B24
:205E200000F044824B48FFF759FA4B4B1860002800F07781427818F80730042043EA02134B
:205E400008F807304349454AFFF7FAF960F03F005FFA80F99BF818303D49FF2B00F08F811B
:205E600001F118000391FFF739FA3B4A03991060002800F0CC8118F80720437818311343D4
:205E800008F807300020019AFFF7DAF949F004095FFA89F949EA00002F685FFA80FE9BF8F2
:205EA00006302822112B3270294900F0108123689AF800209DF80800FF1A991898548AF87F
:205EC000007081F801E04DE7029B43F0010302939CE7296823F03F031343214A0B7012881C
:205EE000CB1C2B606823A1F80120029377E71948FFF7F4F900287FF4EBAE8146EDE62B6853
:205F0000702203F801EB02922B6068E720680BEB060140440BF088F928884044801B80B214
:205F200007F016FC0198FFF7EDF9012007B0BDE8F08F00BFF12B002078100020D01500203F
:205F4000282C0020F80E0020542C0020F81C01003C2C0020442C0020F00E0020342C00203C
:205F60003E2C0020F22B0020C24BD4F8008093F80090C14E41464A46002308F1040033600D
:205F80000BF0C8F92B88DFF818E36FEA83436FEA9343BA4AC3F3072309F104095FFA89F9AC
:205FA00088F80030BEF8003028881178C9EB070703F1010C27F007071A0A88F80330B04E55
:205FC000AC4B88F8010088F8022059443A4608EB090083F80090AEF800C037600BF024F96E
:205FE00007EB090080B207F0B3FB07F0B3FCA54F804600283FF4DFAE0198FFF783F94046F6
:2060000007F0F6FC404607F0DDFC9B4B1B68012B3FF4D1AE043B012B7FF6CDAE2B883A684A
:206020006FEAC3436FEAD3439449C3F3072391F8008013703368029943442D881FFA83F843
:206040008C4B21F007000521557030601970374632E0D6F8009020684A450346B8BF9146B2
:206060009AF80050B8BF3A6083F804E04A4628440BF0DAF809EB050080B207F069FB07F088
:2060800069FC054600283FF496AE0198FFF73AF9284607F0ADFC284607F094FC764A336891
:2060A00012689844012AA2F104031FFA88F83FF482AE012B7FF67FAE734B0BEB08011B889B
:2060C0004FEAD80E9845C8EB0302C2D32DE74FF2B0020B8D5BBA9BB223F00F0080B2904250
:2060E0004A8D52BA92B200F0B28002F47F42B2F5704F00F0308103F47F43B3F5704F00F089
:20610000FA80624BF0223A7018687B1DC7F801001F465F4B30221B88327027F8023B2F6033
:20612000C5E648F2FE03BBF808205A499A420FD14B8B6BB98B8B5BB9CB8B4BB90831042064
:20614000554AFFF77DF840EA09005FFA80F981E6D5F800C0DFF84CE10CF110032B60BEE8F7
:206160000F00CCF80410CCF80000CCF80820CCF80C309BF818304749FF2B7FF471AE91F8D8
:2061800019C049F0080EBCF1020F5FFA8EFE4B8B00F0BC80002B43D18B8B002B40D1BBF8EE
:2061A0001E303C48002B3BD1038C33B9438C23B990F82430002B00F0DA80BBF82020354BEC
:2061C00072BB93F822205ABB2F6849F0090E3A4602F801CB53F8231F063747F8051C1B79C5
:2061E0005FFA8EFE13712F6059E62C4907F022F858E5029B43F0040302939BF80730402B04
:206200007FF4FBAD029B43F002030293FEE548F2FE030A8B9A4202D14B8B002B5BD0CE4657
:20622000D5F80080DFF880C008F11007BCE80F002F60C8F80000C8F80410C8F80820C8F86C
:206240000C302CE6029B43F003030293DEE522F00F0C84457FF449AFF3233B704B8D0A8D31
:206260001B0A120A03EB021303F5AA637B70BB1C4EE700BFF22B00207C100020F12B0020FA
:20628000CC15002078100020282C0020642C00206A2C00203C2C0020342C0020CC1C01008A
:2062A000D22B0020442C0020542C0020138A002B7FF4B8AD538A002B7FF4B4AD938A002BCD
:2062C0007FF4B0ADD38A002B7FF4ACAD49F040095FFA89F9BEE58B8B002BA0D1CB8B002B67
:2062E0009DD11831019AFEF7ABFF40EA09005FFA80FE2F68D3E5F2233B70BBF82830244A1B
:206300001B0A7B7012883B1D7A8001E7002B87D18B8B002B84D1CB8B002B7FF440AF0B8C06
:20632000002B7FF43CAF4B8C002B7FF438AF8B8C002B7FF434AF91F82630002B7FF42FAF85
:206340002F6891F8273049F00B0E07F8013B5FFA8EFE2F60A3E5F1220E4B3A701A883B1D2D
:20636000A7F80120BBF82A20120AFA70D0E62A6849F00A0E134603F801CB30F8251F171D81
:2063800080785FFA8EFEA2F801102F60987086E5662C0020642C0020013A0A44914230B4D1
:2063A00014D20C4625786378023403EB05239BB2184480B2834284BF013080B2A242F1D8EE
:2063C000CB43134423F0010302331944914201D030BC70470B7830BC1B02184480B2834289
:2063E00084BF013080B2704730B5134B134D1C782B796A79C4EB0323134483B09BB2ADF831
:206400000630BDF8063005F108011844202280B2FFF7C2FFBDF8062004F12801294492B22B
:20642000FFF7BAFF18B94FF6FF7003B030BD40BA80B203B030BD00BFF32B00203C2C002037
:20644000022318462DE9F0412C4D2D4E2A782D4F2832B1184978C90001F1070E704548DCD3
:206460008118745CDFF89880012C31440AD01DD3632C0DD13B7005F083F8224AD0B10120C2
:20648000BDE8F0814C7802340319DBB21846E5E704F0C004802C19D0C02C24D0402C1ED092
:2064A0004B7802330344DBB21846D7E7431CDBB21846D3E72B78117828330B44984498F8AE
:2064C00001300B4402331370BDE8F0813B7002440221042002F09AF90220BDE8F0813B70CE
:2064E0000120BDE8F08198F818103B70FF29EED1C5E73B700020BDE8F08100BFF32B002091
:206500003C2C0020F52B002070B4C278134C0A44D2B2E27083780E0A3344DBB2A3704578EB
:206520009E4265700078207003D90135EDB265708DB1C9B28A420CDA0133DBB2A370074A88
:206540003BB953780133DBB2537013B913780133137070BC704701302070EAE7302C0020F9
:2065600010B5084C014620681430FFF7CDFF064A2368507814789178D2781C75587599753F
:20658000DA7510BD34300020302C00203A20FFF72BBF00BF08B501F005FC02F025FA02F034
:2065A00041FD104B002103F1280223F8021F9342FBD10D4B0D4803F5F071002283F825203E
:2065C00030338B42FAD10A4A0A4B4FF48061118003F5A07100221A8220338B42FBD10A2382
:2065E000037008BD1E32002038300020F62B0020D62B00204C3200202DE9F041134E347817
:2066000014B3134F04F127033D88AB4204DB00233B803370BDE8F081DFF83880A5F12802BB
:20662000121B04F128012C1B4144A4B208F128000AF070FEA4F12803191200223C8088F81B
:20664000053088F804103270BDE8F081F32B0020282C00203C2C00202DE9F041DFF8C4801D
:206660002E4E0746B8F800C0308A0CF1010C1FFA8CFCBCF5FA4F26D34FF0100E4FF4805C0D
:206680008645F2D0254C022326462246158E01337545DBB202F12002E7D00B2BF6D1A8F87C
:2066A00000C0DFF884C0A0B301231D46208E5A1C203468B10A2A1346D5B2F7D18CF80050E4
:2066C0000020BDE8F0819CFA9CFE1FFA8EFED7E78CF800505C0104EB060CACF810E0ACF887
:2066E00012100E4B67B1654638687968BA68FB680FC50B4A3319127960461A75BDE8F0810B
:206700000CF108021F51CCF8047042F8047B1760EFE78CF800000346DCE700BF4C320020D7
:2067200094330020D62B0020F62B0020F0B40E4E0E4F3288002382423B700FD001231D4601
:20674000314631F8024F5A1C844206D0142A1346D5B2F6D13D70F0BC70473D70002226F854
:206760001320F0BC704700BF20320020F62B00202DE9F04FB64B042889B01D682BD0B54AD7
:20678000DFF8F0A2DFF8F0B20328CAF80020CBF800202DD0022800F09E80052800F07281E2
:2067A00012F83C1CA2F13C0401F0F001602900F0E980A94BA94EDFF8C482DFF8C492019317
:2067C000019A0023338088F8003089F80030137009B0BDE8F08FA04BA04EA14901930B889D
:2067E000002B40F06A81DFF89482DFF89492E7E795F825E00EF00F0EBEF1030F00F0F480C9
:20680000BEF1020FD5D1A2F13C0404F118030293914B924E019340234FF0020C0420002155
:20682000602284F835E084F83CC084F83D0084F83E1084F83F30338084F834202B7DDFF85D
:20684000308284F830306B7D029F84F83130AB7D84F83230EB7D84F833302B7E84F82C3076
:206860006B7E84F82D30AB7E84F82E30EB7E84F82F302B8A23856B8A638595E80F0087E8DA
:206880000F0008F1080008F1180101F0F3F995F8253003F0100303F0FF02002B40F05081F1
:2068A000402388F8362088F8373033886D4A283B1579062100221E12084663712671E571CD
:2068C000A17184F83B2084F83A202287FFF78CFDC043208725E16448604EC378DFF89C8198
:2068E00001335F490022DBB2C370328088F800200A8063B983780133DBB283703BB9437884
:206900000133DBB2437013B903780133037095F8253003F0FD02052A00F08C80002B00F0FB
